:020000040000FA
:020000000528D1
:040002000034003492
:08000800462883160317890145
:10001000831603138601831203130030A000200807
:100020002F208600A00A2008153C031918280F2845
:100030006730153CA0000000000000000000000038
:1000400000000000000000000000A00B1B28003092
:10005000A00000000000000000000000080082076F
:10006000FF34813481348134FF340034003400346F
:1000700080348034FF3480348034003400340034E1
:10008000FF34903490349034F034080000000900BC
:00000001FF
