:020000040000FA
:020000000528D1
:040002000034003492
:08000800432883160317890148
:10001000831603138601831203130030A000200807
:100020002D2086001920A00A2008153C03191E2047
:100030000F283230A100A10B1B280800860169306F
:10004000A0001920A00B2128FF30153CA00019208A
:10005000A00B27280030A00008008207FF3481345D
:1000600081348134FF3400340034003480348034EF
:10007000FF3480348034003400340034FF34903452
:0A00800090349034F03400000900C1
:00000001FF
